:100000000C943B010C946C010C946C010C946C01ED
:100010000C946C010C946C010C946C010C946C01AC
:100020000C946C010C946C010C946C010C946C019C
:100030000C946C010C946C010C946C010C946C018C
:100040000C946C010C946C010C946C010C946C017C
:100050000C946C010C946C010C946C010C94BD0814
:100060000C946C010C9487080C945D080C946C0142
:100070000C946C010C946C010C946C010C946C014C
:100080000C946C010C946C010C946C010C946C013C
:100090000C946C010C946C010C946C010C946C012C
:1000A0000C946C010C946C010C946C010C946C011C
:1000B0000C946C010C946C010C946C010C946C010C
:1000C0000C946C010C946C010C946C010C946C01FC
:1000D0000C946C010C946C010C946C010C946C01EC
:1000E0000C946C010C94CD010C9407090C9408033A
:1000F0000C9427020C941E030C94FE020C94E9024B
:100100000C94ED020C94C6030C94F5020C9474024A
:100110000C9423030C94BE010C94F8020C941A0363
:100120000C9486030C9428030C940C030C94020387
:100130000C9491010C94F1020C9416030C9410038E
:100140000C94EF010C9455030C9424030C94E302DB
:100150000C94E10100002100240027002A002D005A
:100160003000330001010000040107010A01000012
:100170002200250028002B002E003100340002014F
:100180000000050108010B010000200023002600EB
:1001900029002C002F00320000010000030106019D
:1001A00009010505050507050808080802020202FD
:1001B0000A0A080804040404010101010101010103
:1001C0000303030303030303040707070C0C0C0CCE
:1001D0000C0C0C0C020202020606060606060606B7
:1001E0000B0B0B0B0B0B0B0B010210202008081044
:1001F0002040102040800201020108040201010297
:10020000040810204080804020100804020180046F
:1002100002018040201008040201080402010102CA
:1002200004081020408001020408102040800000D3
:100230000A0B02090C0D0E08070304010000000060
:1002400000000000000000000000000000000000AE
:10025000000000000000000000001211100000006B
:10026000000000000000000000000000000000008E
:1002700000000000070911241FBECFEFD1E2DEBF4E
:10028000CDBF00E00CBF14E0A0E0B2E0E0E1F5E19A
:1002900000E00BBF02C007900D92A236B107D9F75C
:1002A00025E0A2E6B4E001C01D92A738B207E1F74D
:1002B00011E0CBE3D1E000E006C021970109802FD7
:1002C000FE010E94580ACA33D10780E00807A9F747
:1002D0000E9494090C94860A0C94000096E0899F71
:1002E000D0011124A85EBA4F90967C936E935F97CD
:1002F00091E091969C939197E0918505F091860508
:1003000090918405992339F0309751F0811108C0FC
:10031000809134051994309719F05C968C91FACF3E
:100320000895AF92BF92CF92DF92EF92FF920F9318
:100330001F93CF93DF936C017B018B01040F151F7B
:10034000EB015E01AE18BF08C017D10759F06991E3
:10035000D601ED91FC910190F081E02DC601199537
:10036000892B79F7C501DF91CF911F910F91FF90F4
:10037000EF90DF90CF90BF90AF900895FC01538D28
:10038000448D252F30E0842F90E0821B930B54176F
:1003900010F0CF96089501970895FC01918D828DFC
:1003A000981761F0A28DAE0FBF2FB11D5D968C9195
:1003B000928D9F5F9F73928F90E008958FEF9FEFD4
:1003C0000895FC01918D828D981731F0828DE80F90
:1003D000F11D858D90E008958FEF9FEF0895FC014A
:1003E000918D228D892F90E0805C9F4F821B910917
:1003F0008F73992708958BE794E00E94EF0121E025
:10040000892B09F420E0822F0895FC01A48DA80F08
:10041000B92FB11DA35ABF4F2C91848D90E0019646
:100420008F739927848FA689B7892C93A089B18966
:100430008C91837080648C93938D848D981306C007
:100440000288F389E02D80818F7D80830895EF926B
:10045000FF920F931F93CF93DF93EC0181E0888F7E
:100460009B8D8C8D98131AC0E889F989808185FF4E
:1004700015C09FB7F894EE89FF896083E889F989F0
:1004800080818370806480839FBF81E090E0DF91F2
:10049000CF911F910F91FF90EF900895F62E0B8D45
:1004A00010E00F5F1F4F0F731127E02E8C8D8E1100
:1004B0000CC00FB607FCFACFE889F989808185FF67
:1004C000F5CFCE010E940502F1CFEB8DEC0FFD2F91
:1004D000F11DE35AFF4FF0829FB7F8940B8FEA8922
:1004E000FB8980818062CFCFCF93DF93EC01888D31
:1004F0008823B9F0AA89BB89E889F9898C9185FD9F
:1005000003C0808186FD0DC00FB607FCF7CF8C912C
:1005100085FFF2CF808185FFEDCFCE010E940502DD
:10052000E9CFDF91CF91089580E090E0892B29F009
:100530000E94FB0181110E94000080E090E0892B65
:1005400049F080E090E0892B29F00E9400008111A1
:100550000E94000080E090E0892B49F080E090E06C
:10056000892B29F00E94000081110E94000080E088
:1005700090E0892B49F080E090E0892B29F00E94DF
:10058000000081110C94000008958150823108F020
:100590005AC0E82FF0E08827EF52FD4F8F4F0C94A0
:1005A000580AF102F502E302E902ED022303F80220
:1005B000FE02020308030C03100316031A032303AD
:1005C0001E0324032803809180008F77809380008E
:1005D0000895809180008F7DF9CF80918000877F82
:1005E000F5CF84B58F7784BD089584B58F7DFBCF1B
:1005F0008091B0008F778093B00008958091B00013
:100600008F7DF9CF809190008F778093900008952F
:10061000809190008F7DF9CF80919000877FF5CFFA
:100620008091A0008F778093A00008958091A00012
:100630008F7DF9CF8091A000877FF5CF8091200139
:100640008F77809320010895809120018F7DF9CFCD
:1006500080912001877FF5CFCF93DF93282F30E063
:10066000F901E25DFD4F8491F901E851FE4FD4910B
:10067000F901EE55FE4FC491CC23A1F081110E94E7
:10068000C502EC2FF0E0EE0FFF1FE857FE4FA591DB
:10069000B491EC91ED2381E090E009F480E0DF91EA
:1006A000CF91089580E090E0FACF862F0C942C0330
:1006B0001F93CF93DF93282F30E0F901E25DFD4FC8
:1006C0008491F901E851FE4FD491F901EE55FE4FA6
:1006D000C491CC23A9F0162F81110E94C502EC2FE2
:1006E000F0E0EE0FFF1FE259FE4FA591B4918FB7D6
:1006F000F894EC91111108C0D095DE23DC938FBFE4
:10070000DF91CF911F910895DE2BF8CF862F642FB4
:100710000C945803CF93DF9390E0FC01E851FE4F17
:1007200024918E559E4FFC0184918823C9F090E05E
:10073000880F991FFC01EC5AFE4FA591B491FC0162
:10074000E259FE4FC591D49161110DC09FB7F89445
:100750008C91209582238C938881282328839FBFA6
:10076000DF91CF910895623051F49FB7F8943C9196
:10077000822F809583238C93E8812E2BEFCF8FB728
:10078000F894EC912E2B2C938FBFEACF862F642FF9
:100790000C948A033FB7F894809177049091780481
:1007A000A0917904B0917A0426B5A89B05C02F3F8B
:1007B00019F00196A11DB11D3FBFBA2FA92F982F87
:1007C0008827BC01CD01620F711D811D911D42E082
:1007D000660F771F881F991F4A95D1F708958F924A
:1007E0009F92AF92BF92CF92DF92EF92FF924B0116
:1007F0005C010E94CA036B017C010E94CA036C1950
:100800007D098E099F09683E734081059105A8F313
:1008100021E0821A9108A108B10888EEC80E83E091
:10082000D81EE11CF11C81149104A104B10429F724
:10083000FF90EF90DF90CF90BF90AF909F908F9000
:1008400008952FB7F89460917304709174048091A7
:100850007504909176042FBF08950F931F93CF9343
:10086000DF93C82FD62F86E0C89FF0011124E85EE1
:10087000FA4F11A2878D90A181309105F1F058F0C7
:1008800082309105F1F1039709F440C0DF91CF91D7
:100890001F910F9108956623C9F361E070E08C2FDA
:1008A0000E946E010E94210460937005709371058F
:1008B0008093720590937305E9CF0E942104009103
:1008C0007005109171052091720530917305AB018F
:1008D000BC01401B510B620B730B80918205909100
:1008E0008305B0E0A0E084179507A607B70748F492
:1008F00062E070E08C2FDF91CF911F910F910C94EB
:100900006E0163E070E0D111C1CFF4CF70E060E020
:10091000F1CF6F927F928F929F92AF92BF92CF92C0
:10092000DF92EF92FF920F931F93CF93DF9381E0BB
:10093000809384050E94210400917405109175052F
:100940002091760530917705AB01BC01401B510B1E
:10095000620B730B8091800590918105B0E0A0E05F
:1009600084179507A607B70708F014C1C0E0809167
:100970007E05C81760F4E0917A05F0917B05EC0FD5
:10098000F11D62E080810E948A03CF5FF0CF712C5D
:10099000812C912C5401839480917F05781608F066
:1009A0005FC0072D10E0E0917C05F0917D05E00F20
:1009B000F11F61E080810E948A03E0917C05F09143
:1009C0007D05E00FF11F60E080810E945803D50192
:1009D000C401072C04C0880F991FAA1FBB1F0A94CB
:1009E000D2F76C017C01E094F094612C80917E053B
:1009F0006816F8F4C62DD0E0E0917A05F0917B05F9
:100A0000EC0FFD1F80810E942C032496CC0FDD1F6C
:100A1000C85EDA4F892B41F4888199818C299D2900
:100A2000998388836394E2CF888199818E219F2165
:100A3000F7CFE0917C05F0917D05E00FF11F61E0BB
:100A400080810E94580380917C0590917D05080F5C
:100A5000191F60E0F80180810E948A0373949CCF83
:100A6000C8E1D5E0FE018FEF9FEF278D30A1232B4A
:100A700021F4148E968F858F11A2369625E0E435E9
:100A8000F20799F7F12C96E0D92E80917E05F816A1
:100A900008F050C0E12C0F2D10E0000F111F005E78
:100AA0001A4F20917F05E21608F042C0F8016081DC
:100AB00071810E2C02C0769567950A94E2F7F29E3A
:100AC000900111242E0D311DE8E1F5E080E0458D07
:100AD000568D2417350709F461C08F5F36968A302A
:100AE000B1F760FF23C0E8E1F5E090E080E0448DDD
:100AF000411117C0E0917805F0917905E20FF31FDD
:100B00004081D89EF001D99EF00D1124E85EFA4F85
:100B1000448F368F258F10A2178E61E00E942D041E
:100B200005C0019636968A30910509F7E394B9CF4E
:100B3000F394ABCF10E089A18111182F2696F5E030
:100B4000C435DF07C1F70E942104609374057093D8
:100B5000750580937605909377051123D9F08091E0
:100B600039058823B9F080913705909138050197B0
:100B700089F480913405DF91CF911F910F91FF90FF
:100B8000EF90DF90CF90BF90AF909F908F907F902D
:100B90006F9008951092840580E0EDCF6170BECF14
:100BA000CF93DF93EC0161E0181619060CF060E0BA
:100BB00084E00E94580361E0C230D1050CF460E08B
:100BC00083E00E94580361E0239709F060E082E02F
:100BD000DF91CF910C945803FC0101900020E9F7BC
:100BE0003197AF01481B590BBC018BE794E00C9483
:100BF0009101CF93DF930E94EC05EC018DE392E02D
:100C00000E94EC058C0F9D1FDF91CF9108950F93EB
:100C10001F93CF93DF9300D000D000D0CDB7DEB7C5
:100C200086EC93E00E94F90580E492E00E94F905C9
:100C30008BE592E00E94F9058BE00E942C0301975E
:100C400039F462E370E080E090E00E94EF03F4CFBB
:100C50008AE00E942C030197A1F30E948904882353
:100C600009F438C18A3209F030C186EC93E00E9461
:100C7000F9058AE692E00E94F9051092710410E0ED
:100C800000E00E9489048823E1F3833209F009C15E
:100C90000630110509F482C089E992E00830110597
:100CA00009F0CEC00981002E000C110BC8010E9472
:100CB000630A892BA9F18A81082E000C990BC09731
:100CC0000A9770F58B81082E000C990B0E94630A1D
:100CD000892B31F18C81082E000C990B0E94630A3C
:100CE000892BF1F08D81082E000C990BC0970A9783
:100CF000B8F48E81082E000C990BC0970A9780F4E7
:100D00008F81082E000C990B0E94630A892B41F0F9
:100D10008885082E000C990BC0970A9708F493C099
:100D2000005311090A301105B0F58A81082E000C14
:100D3000990B0E94630A892B71F18B81082E000C9C
:100D4000990BC0970A9738F58C81082E000C990BE7
:100D5000C0970A9700F58D81082E000C990B0E9410
:100D6000630A892BC1F08E81082E000C990B0E941A
:100D7000630A892B81F08F81082E000C990BC09794
:100D80000A9748F48885082E000C990B0E94630A84
:100D9000892B09F058C081E093E052C00981002EF0
:100DA000000C110BC801C0970A97F0F48A81082E35
:100DB000000C990B0E94630A892BB1F08B81082EDD
:100DC000000C990BC0970A9778F48C81082E000CC0
:100DD000990B0E94630A892B39F08D81082E000C33
:100DE000990BC0970A9718F1C8010E94630A892BD2
:100DF00029F18A81082E000C990BC0970A97F0F40C
:100E00008B81082E000C990B0E94630A892BB1F08C
:100E10008C81082E000C990BC0970A9778F48D816D
:100E2000082E000C990B0E94630A892B39F08E81E1
:100E3000082E000C990BC0970A9728F082ED92E0DB
:100E40000E94F905EDCE48E050E0BE016F5F7F4F94
:100E500080E092E00E94740A1092080280E393E01E
:100E60000E94F9050E948904833239F062E370E040
:100E700080E090E00E94EF03F5CF86E593E00E94CA
:100E8000F9056CE271E080E090E029960FB6F894E5
:100E9000DEBF0FBECDBFDF91CF911F910F910C949C
:100EA000EF0390917104E1E0F0E0EC0FFD1FE90F1A
:100EB000F11D80839F5F90937104682F8BE794E00E
:100EC0000E9427020F5F1F4FDCCE682F8BE794E054
:100ED0000E9427028AE00E942C03019749F586ECC4
:100EE00093E00E94F9058DE793E00E94F9058BE0FD
:100EF0000E942C03019739F462E370E080E090E0F7
:100F00000E94EF03F4CF8AE00E942C030197A1F323
:100F10008BE00E942C03019719F40E94AA07B1CF1D
:100F20008AE00E942C03019799F70E940706A9CF37
:100F30008BE00E942C03019709F08FCE29960FB603
:100F4000F894DEBF0FBECDBFDF91CF911F910F91FF
:100F50000C94AA07CF92DF92EF92FF92CF93DF9388
:100F600086EC93E00E94F9058AE993E00E94F90576
:100F70000E948904833209F08EC0E0917104F0E090
:100F8000E859FB4F108286EC93E00E94F90560E07F
:100F900072E088E694E00E946B0A892B19F58EEACC
:100FA00093E00E94F90588EC93E00E94F90586EC35
:100FB00093E00E94F90585EF93E00E94F9051092F5
:100FC00067041092660490E080E00E94D0050E94C1
:100FD000070610927104DF91CF91FF90EF90DF90A0
:100FE000CF9008958EEA93E00E94F90585E094E0A1
:100FF0000E94F905C0916604D09167042196D093B0
:101000006704C0936604CE010E94D00523970CF3B9
:1010100086EC93E00E94F90585E394E00E94F905CF
:1010200081E594E00E94F9050E9421046B017C0196
:10103000C0926204D0926304E0926404F09265046A
:101040000E9421046C197D098E099F0968397A4331
:101050008105910538F468EE73E080E090E00E942D
:10106000EF03EECF109267041092660460E084E014
:101070000E94580360E083E00E94580360E082E031
:101080000E94580310926204109263041092640448
:10109000109265049ECF882309F46ACF9091710461
:1010A000E92FF0E0E859FB4F80839F5F9093710434
:1010B0008FE594E00E94EC055BCF1F920F920FB674
:1010C0000F9211240BB60F922F933F934F935F9380
:1010D0006F937F938F939F93AF93BF93EF93FF9300
:1010E0008BE794E00E940502FF91EF91BF91AF91D1
:1010F0009F918F917F916F915F914F913F912F9130
:101100000F900BBE0F900FBE0F901F9018951F925F
:101110000F920FB60F9211240BB60F922F938F934D
:101120009F93EF93FF93E0918B04F0918C04808167
:10113000E0919104F091920482FD1DC09081809114
:1011400094048F5F8F7320919504821741F0E09192
:101150009404F0E0E558FB4F958F80939404FF9141
:10116000EF919F918F912F910F900BBE0F900FBE1B
:101170000F901F9018958081F2CF1F920F920FB69B
:101180000F9211242F933F938F939F93AF93BF930D
:101190008091730490917404A0917504B0917604C9
:1011A0003091720423E0230F2D3758F50196A11DCD
:1011B000B11D209372048093730490937404A093E0
:1011C0007504B09376048091770490917804A0918F
:1011D0007904B0917A040196A11DB11D8093770422
:1011E00090937804A0937904B0937A04BF91AF915F
:1011F0009F918F913F912F910F900FBE0F901F9055
:10120000189526E8230F0296A11DB11DD2CF10928A
:101210007E0410927D0488EE93E0A0E0B0E080931D
:101220007F0490938004A0938104B093820485E2AC
:1012300092E090937C0480937B0485EC90E0909303
:1012400088048093870484EC90E090938A048093D0
:10125000890480EC90E090938C0480938B0481EC63
:1012600090E090938E0480938D0482EC90E09093B4
:10127000900480938F0486EC90E090939204809386
:101280009104109294041092950410929604109276
:10129000970410921A0510921E0510921D051092C7
:1012A0001F0587E392E09093190580931805E4E306
:1012B000F5E01082148213821582369685E0E037BD
:1012C000F807B9F78DE092E090937B0580937A055B
:1012D00089E092E090937D0580937C0584E0809383
:1012E0007E0580937F0581E192E09093790580935C
:1012F00078058AE090E0909381058093800584EFE3
:1013000091E0909383058093820510928605109258
:10131000850510927405109275051092760510924D
:101320007705109284050895789484B5826084BD11
:1013300084B5816084BD85B5826085BD85B58160D9
:1013400085BD80916E00816080936E001092810057
:101350008091810082608093810080918100816012
:1013600080938100809180008160809380008091D3
:10137000B10084608093B1008091B000816080935F
:10138000B0008091910082608093910080919100E3
:1013900081608093910080919000816080939000A3
:1013A0008091A10082608093A1008091A100816062
:1013B0008093A1008091A00081608093A000809123
:1013C00021018260809321018091210181608093BD
:1013D00021018091200181608093200180917A0019
:1013E000846080937A0080917A00826080937A0092
:1013F00080917A00816080937A0080917A00806881
:1014000080937A001092C100E0918B04F0918C04DB
:1014100082E08083E0918704F09188041082E0915B
:101420008904F0918A048FEC808310929304E091F8
:101430008F04F091900486E08083E0918D04F09118
:101440008E04808180618083E0918D04F0918E0410
:10145000808188608083E0918D04F0918E0480818A
:1014600080688083E0918D04F0918E0480818F7D6F
:10147000808360E08BE00E948A0360E08AE00E9443
:101480008A0361E084E00E948A0361E083E00E94B5
:101490008A0361E082E00E948A030E94AA0764E650
:1014A00070E080E090E00E94EF030E949402F5CF8C
:1014B000EE0FFF1F881F8BBF0790F691E02D199448
:1014C00085FD0C94830A806291110C94830A8156E5
:1014D0008A51D8F70895FB01DC018D9101908019A4
:1014E0000110D9F3990B0895FB01DC0141505040E4
:1014F00048F001900D920020C9F701C01D924150A3
:101500005040E0F70895992788270895F894FFCF71
:101510004143303443313234000E0F101112131492
:10152000153738394134353642313233432A302386
:10153000440000000027029101BE017402EF01CDBA
:1015400001E10100000000C603860355030D0A00F7
:1015500043616D6269616E646F2061206D6F646FBD
:1015600020536567757269646164003D3D3D2041AB
:10157000524D41444F203D3D3D00457370657261C1
:101580006E646F20636F6E74726173656E69612C37
:1015900020696E6772657365206C61206E75657673
:1015A0006120636C6176652000204C6120636C6172
:1015B000766520646562652074656E6572203620EC
:1015C00075203820636172616374657265732E20C3
:1015D000496E74656E7465206465206E7565766FFE
:1015E0002E0020506174726F6E20696E636F72728C
:1015F0006563746F207061726120636C6176652031
:101600006465203620636172616374657265732E50
:101610000020506174726F6E20696E636F72726524
:1016200063746F207061726120636C617665206401
:1016300065203820636172616374657265732E0082
:10164000204E7565766120636C61766520696E67F2
:1016500072657361646120636F7272656374616D3A
:10166000656E74652E00204E7565766120636C6131
:10167000766520616C6D6163656E61646120636F86
:101680007272656374616D656E74652E0043616D81
:101690006269616E646F2061206D6F646F204361C9
:1016A0006C63756C61646F726100496E677265731B
:1016B0006520636F6E74726173656E696100566157
:1016C0006C6964616E646F20636F6E7472617365C0
:1016D0006E69612E2E2E20004C6120636F6E747235
:1016E0006173656E696120736520686120696E674A
:1016F00072657361646F20636F7272656374616D8C
:10170000656E746500446573626C6F7175656164C4
:101710006F2E2E2E004C6120636F6E7472617365A4
:101720006E6961206E6F20736520686120696E6745
:1017300072657361646F20636F7272656374616D4B
:10174000656E7465004D6178696D6F206465206910
:101750006E74656E746F732066616C6C69646F7310
:1017600000426C6F717565616E646F2E2E2E002ABB
:02177000000077
:00000001FF
