:100000000C943B010C946C010C946C010C946C01ED
:100010000C946C010C946C010C946C010C946C01AC
:100020000C946C010C946C010C946C010C946C019C
:100030000C946C010C946C010C946C010C946C018C
:100040000C946C010C946C010C946C010C946C017C
:100050000C946C010C946C010C946C010C94780859
:100060000C946C010C9442080C9418080C946C01CC
:100070000C946C010C946C010C946C010C946C014C
:100080000C946C010C946C010C946C010C946C013C
:100090000C946C010C946C010C946C010C946C012C
:1000A0000C946C010C946C010C946C010C946C011C
:1000B0000C946C010C946C010C946C010C946C010C
:1000C0000C946C010C946C010C946C010C946C01FC
:1000D0000C946C010C946C010C946C010C946C01EC
:1000E0000C946C010C94CD010C94C2080C94080380
:1000F0000C9427020C941E030C94FE020C94E9024B
:100100000C94ED020C94C6030C94F5020C9474024A
:100110000C9423030C94BE010C94F8020C941A0363
:100120000C9486030C9428030C940C030C94020387
:100130000C9491010C94F1020C9416030C9410038E
:100140000C94EF010C9455030C9424030C94E302DB
:100150000C94E10100002100240027002A002D005A
:100160003000330001010000040107010A01000012
:100170002200250028002B002E003100340002014F
:100180000000050108010B010000200023002600EB
:1001900029002C002F00320000010000030106019D
:1001A00009010505050507050808080802020202FD
:1001B0000A0A080804040404010101010101010103
:1001C0000303030303030303040707070C0C0C0CCE
:1001D0000C0C0C0C020202020606060606060606B7
:1001E0000B0B0B0B0B0B0B0B010210202008081044
:1001F0002040102040800201020108040201010297
:10020000040810204080804020100804020180046F
:1002100002018040201008040201080402010102CA
:1002200004081020408001020408102040800000D3
:100230000A0B02090C0D0E08070304010000000060
:1002400000000000000000000000000000000000AE
:10025000000000000000000000001211100000006B
:10026000000000000000000000000000000000008E
:1002700000000000C20811241FBECFEFD1E2DEBF94
:10028000CDBF00E00CBF13E0A0E0B2E0E8E6F4E18F
:1002900000E00BBF02C007900D92AE3AB107D9F74C
:1002A00024E0AEEAB3E001C01D92A33DB207E1F73E
:1002B00011E0CBE3D1E000E006C021970109802FD7
:1002C000FE010E94130ACA33D10780E00807A9F78C
:1002D0000E944F090C94320A0C94000096E0899F0A
:1002E000D0011124AC59BB4F90967C936E935F97CD
:1002F00091E091969C939197E091D104F091D20472
:100300009091D004992339F0309751F0811108C0B1
:10031000809180041994309719F05C968C91FACFF3
:100320000895AF92BF92CF92DF92EF92FF920F9318
:100330001F93CF93DF936C017B018B01040F151F7B
:10034000EB015E01AE18BF08C017D10759F06991E3
:10035000D601ED91FC910190F081E02DC601199537
:10036000892B79F7C501DF91CF911F910F91FF90F4
:10037000EF90DF90CF90BF90AF900895FC01538D28
:10038000448D252F30E0842F90E0821B930B54176F
:1003900010F0CF96089501970895FC01918D828DFC
:1003A000981761F0A28DAE0FBF2FB11D5D968C9195
:1003B000928D9F5F9F73928F90E008958FEF9FEFD4
:1003C0000895FC01918D828D981731F0828DE80F90
:1003D000F11D858D90E008958FEF9FEF0895FC014A
:1003E000918D228D892F90E0805C9F4F821B910917
:1003F0008F739927089587EC93E00E94EF0121E025
:10040000892B09F420E0822F0895FC01A48DA80F08
:10041000B92FB11DA35ABF4F2C91848D90E0019646
:100420008F739927848FA689B7892C93A089B18966
:100430008C91837080648C93938D848D981306C007
:100440000288F389E02D80818F7D80830895EF926B
:10045000FF920F931F93CF93DF93EC0181E0888F7E
:100460009B8D8C8D98131AC0E889F989808185FF4E
:1004700015C09FB7F894EE89FF896083E889F989F0
:1004800080818370806480839FBF81E090E0DF91F2
:10049000CF911F910F91FF90EF900895F62E0B8D45
:1004A00010E00F5F1F4F0F731127E02E8C8D8E1100
:1004B0000CC00FB607FCFACFE889F989808185FF67
:1004C000F5CFCE010E940502F1CFEB8DEC0FFD2F91
:1004D000F11DE35AFF4FF0829FB7F8940B8FEA8922
:1004E000FB8980818062CFCFCF93DF93EC01888D31
:1004F0008823B9F0AA89BB89E889F9898C9185FD9F
:1005000003C0808186FD0DC00FB607FCF7CF8C912C
:1005100085FFF2CF808185FFEDCFCE010E940502DD
:10052000E9CFDF91CF91089580E090E0892B29F009
:100530000E94FB0181110E94000080E090E0892B65
:1005400049F080E090E0892B29F00E9400008111A1
:100550000E94000080E090E0892B49F080E090E06C
:10056000892B29F00E94000081110E94000080E088
:1005700090E0892B49F080E090E0892B29F00E94DF
:10058000000081110C94000008958150823108F020
:100590005AC0E82FF0E08827EF52FD4F8F4F0C94A0
:1005A000130AF102F502E302E902ED022303F80265
:1005B000FE02020308030C03100316031A032303AD
:1005C0001E0324032803809180008F77809380008E
:1005D0000895809180008F7DF9CF80918000877F82
:1005E000F5CF84B58F7784BD089584B58F7DFBCF1B
:1005F0008091B0008F778093B00008958091B00013
:100600008F7DF9CF809190008F778093900008952F
:10061000809190008F7DF9CF80919000877FF5CFFA
:100620008091A0008F778093A00008958091A00012
:100630008F7DF9CF8091A000877FF5CF8091200139
:100640008F77809320010895809120018F7DF9CFCD
:1006500080912001877FF5CFCF93DF93282F30E063
:10066000F901E25DFD4F8491F901E851FE4FD4910B
:10067000F901EE55FE4FC491CC23A1F081110E94E7
:10068000C502EC2FF0E0EE0FFF1FE857FE4FA591DB
:10069000B491EC91ED2381E090E009F480E0DF91EA
:1006A000CF91089580E090E0FACF862F0C942C0330
:1006B0001F93CF93DF93282F30E0F901E25DFD4FC8
:1006C0008491F901E851FE4FD491F901EE55FE4FA6
:1006D000C491CC23A9F0162F81110E94C502EC2FE2
:1006E000F0E0EE0FFF1FE259FE4FA591B4918FB7D6
:1006F000F894EC91111108C0D095DE23DC938FBFE4
:10070000DF91CF911F910895DE2BF8CF862F642FB4
:100710000C945803CF93DF9390E0FC01E851FE4F17
:1007200024918E559E4FFC0184918823C9F090E05E
:10073000880F991FFC01EC5AFE4FA591B491FC0162
:10074000E259FE4FC591D49161110DC09FB7F89445
:100750008C91209582238C938881282328839FBFA6
:10076000DF91CF910895623051F49FB7F8943C9196
:10077000822F809583238C93E8812E2BEFCF8FB728
:10078000F894EC912E2B2C938FBFEACF862F642FF9
:100790000C948A033FB7F8948091C3039091C403EB
:1007A000A091C503B091C60326B5A89B05C02F3FF5
:1007B00019F00196A11DB11D3FBFBA2FA92F982F87
:1007C0008827BC01CD01620F711D811D911D42E082
:1007D000660F771F881F991F4A95D1F708958F924A
:1007E0009F92AF92BF92CF92DF92EF92FF924B0116
:1007F0005C010E94CA036B017C010E94CA036C1950
:100800007D098E099F09683E734081059105A8F313
:1008100021E0821A9108A108B10888EEC80E83E091
:10082000D81EE11CF11C81149104A104B10429F724
:10083000FF90EF90DF90CF90BF90AF909F908F9000
:1008400008952FB7F8946091BF037091C003809111
:10085000C1039091C2032FBF08950F931F93CF93AD
:10086000DF93C82FD62F86E0C89FF0011124EC59E2
:10087000FB4F11A2878D90A181309105F1F058F0C6
:1008800082309105F1F1039709F440C0DF91CF91D7
:100890001F910F9108956623C9F361E070E08C2FDA
:1008A0000E946E010E9421046093BC047093BD04F9
:1008B0008093BE049093BF04E9CF0E94210400916D
:1008C000BC041091BD042091BE043091BF04AB0163
:1008D000BC01401B510B620B730B8091CE049091B5
:1008E000CF04B0E0A0E084179507A607B70748F447
:1008F00062E070E08C2FDF91CF911F910F910C94EB
:100900006E0163E070E0D111C1CFF4CF70E060E020
:10091000F1CF6F927F928F929F92AF92BF92CF92C0
:10092000DF92EF92FF920F931F93CF93DF9381E0BB
:100930008093D0040E9421040091C0041091C1044E
:100940002091C2043091C304AB01BC01401B510B88
:10095000620B730B8091CC049091CD04B0E0A0E0C9
:1009600084179507A607B70708F014C1C0E0809167
:10097000CA04C81760F4E091C604F091C704EC0FF4
:10098000F11D62E080810E948A03CF5FF0CF712C5D
:10099000812C912C540183948091CB04781608F01B
:1009A0005FC0072D10E0E091C804F091C904E00F8A
:1009B000F11F61E080810E948A03E091C804F091F8
:1009C000C904E00FF11F60E080810E945803D50147
:1009D000C401072C04C0880F991FAA1FBB1F0A94CB
:1009E000D2F76C017C01E094F094612C8091CA04F0
:1009F0006816F8F4C62DD0E0E091C604F091C70463
:100A0000EC0FFD1F80810E942C032496CC0FDD1F6C
:100A1000CC59DB4F892B41F4888199818C299D2900
:100A2000998388836394E2CF888199818E219F2165
:100A3000F7CFE091C804F091C904E00FF11F61E025
:100A400080810E9458038091C8049091C904080FC6
:100A5000191F60E0F80180810E948A0373949CCF83
:100A6000C4E6D4E0FE018FEF9FEF278D30A1232B4A
:100A700021F4148E968F858F11A2369624E0E03AE9
:100A8000F20799F7F12C96E0D92E8091CA04F81656
:100A900008F050C0E12C0F2D10E0000F111F045979
:100AA0001B4F2091CB04E21608F042C0F801608190
:100AB00071810E2C02C0769567950A94E2F7F29E3A
:100AC000900111242E0D311DE4E6F4E080E0458D07
:100AD000568D2417350709F461C08F5F36968A302A
:100AE000B1F760FF23C0E4E6F4E090E080E0448DDD
:100AF000411117C0E091C404F091C504E20FF31F47
:100B00004081D89EF001D99EF00D1124EC59FB4F85
:100B1000448F368F258F10A2178E61E00E942D041E
:100B200005C0019636968A30910509F7E394B9CF4E
:100B3000F394ABCF10E089A18111182F2696F4E031
:100B4000C03ADF07C1F70E9421046093C00470938C
:100B5000C1048093C2049093C3041123D9F08091FF
:100B600085048823B9F080918304909184040197CF
:100B700089F480918004DF91CF911F910F91FF90B4
:100B8000EF90DF90CF90BF90AF909F908F907F902D
:100B90006F9008951092D00480E0EDCF6170BECFC9
:100BA000CF93DF93EC0161E0181619060CF060E0BA
:100BB00084E00E94580361E0C230D1050CF460E08B
:100BC00083E00E94580361E0239709F060E082E02F
:100BD000DF91CF910C945803CF93DF93FC010190E8
:100BE0000020E9F73197AF01481B590BBC0187EC96
:100BF00093E00E949101EC0142E050E06DE372E06D
:100C000087EC93E00E9491018C0F9D1FDF91CF91A3
:100C10000895CF93DF9380E492E00E94EC058BE08F
:100C20000E942C03019739F462E370E080E090E0C9
:100C30000E94EF03F4CF8AE00E942C030197A1F3F6
:100C40000E948904882309F434C18A3209F02CC136
:100C50008FE492E00E94EC051092BD03D0E0C0E06A
:100C60000E9489048823E1F3833209F00CC1C63065
:100C7000D10509F48EC087E692E0289709F0E5C017
:100C8000C09100020C2E000CDD0BCE010E941E0A4A
:100C9000892BE1F180910102082E000C990BC0977D
:100CA0000A97A0F580910202082E000C990B0E9471
:100CB0001E0A892B59F180910302082E000C990B12
:100CC0000E941E0A892B11F180910402082E000C4B
:100CD000990BC0970A97D0F480910502082E000C5A
:100CE000990BC0970A9790F480910602082E000C89
:100CF000990B0E941E0A892B49F080910702082E49
:100D0000000C990BC0970A9708F4A2C0E0972A97A5
:100D1000E8F580910102082E000C990B0E941E0A32
:100D2000892BA1F180910202082E000C990BC0972B
:100D30000A9760F580910302082E000C990BC0976A
:100D40000A9720F580910402082E000C990B0E944E
:100D50001E0A892BD9F080910502082E000C990BF0
:100D60000E941E0A892B91F080910602082E000C29
:100D7000990BC0970A9750F480910702082E000C37
:100D8000990B0E941E0A892B09F062C081ED92E046
:100D90005CC0C09100020C2E000CDD0BCE01C09790
:100DA0000A9710F580910102082E000C990B0E9401
:100DB0001E0A892BC9F080910202082E000C990BA3
:100DC000C0970A9788F480910302082E000C990BB3
:100DD0000E941E0A892B41F080910402082E000C0B
:100DE000990BC0970A9738F1CE010E941E0A892BF1
:100DF00051F180910102082E000C990BC0970A97BF
:100E000010F580910202082E000C990B0E941E0A18
:100E1000892BC9F080910302082E000C990BC09712
:100E20000A9788F480910402082E000C990B0E9406
:100E30001E0A892B41F080910502082E000C990BA7
:100E4000C0970A9728F081EA92E00E94EC05E3CE71
:100E500081E093E00E94EC050E948904833239F01E
:100E600062E370E080E090E00E94EF03F5CF88E25B
:100E700093E00E94EC056CE271E080E090E0DF918D
:100E8000CF910C94EF039091BD03E92FF0E0E05077
:100E9000FE4F80839F5F9093BD03682F87EC93E0A4
:100EA0000E9427022196DCCE682F87EC93E00E94F7
:100EB00027028AE00E942C03019709F0C1CE85E445
:100EC00093E00E94EC058BE00E942C03019739F41B
:100ED00062E370E080E090E00E94EF03F4CF8AE0EC
:100EE0000E942C030197A1F38BE00E942C03019731
:100EF00019F40E948407BFCF8AE00E942C03019757
:100F000099F70E940906B7CFCF92DF92EF92FF9236
:100F1000CF93DF9386E593E00E94EC050E9489045D
:100F2000833209F072C0E091BD03F0E0EC54FC4F55
:100F3000108260E072E084EB93E00E94260A892B25
:100F4000B9F488E693E00E94EC051092B303109286
:100F5000B20390E080E00E94D0050E940906109242
:100F6000BD03DF91CF91FF90EF90DF90CF90089578
:100F700082E793E00E94EC05C091B203D091B303E5
:100F80002196D093B303C093B203CE010E94D00543
:100F900023972CF38EE793E00E94EC050E94210436
:100FA0006B017C01C092AE03D092AF03E092B0031C
:100FB000F092B1030E9421046C197D098E099F09EA
:100FC00068397A438105910538F468EE73E080E072
:100FD00090E00E94EF03EECF1092B3031092B203A1
:100FE00060E084E00E94580360E083E00E945803C0
:100FF00060E082E00E9458031092AE031092AF03AB
:101000001092B0031092B103AACF882309F486CFBF
:101010009091BD03E92FF0E0EC54FC4F80839F5F7B
:101020009093BD03682F87EC93E00E94270276CF50
:101030001F920F920FB60F9211240BB60F922F939F
:101040003F934F935F936F937F938F939F93AF9350
:10105000BF93EF93FF9387EC93E00E940502FF910B
:10106000EF91BF91AF919F918F917F916F915F9120
:101070004F913F912F910F900BBE0F900FBE0F908D
:101080001F9018951F920F920FB60F9211240BB656
:101090000F922F938F939F93EF93FF93E091D7033A
:1010A000F091D8038081E091DD03F091DE0382FDB1
:1010B0001DC090818091E0038F5F8F732091E103C9
:1010C000821741F0E091E003F0E0E953FC4F958F87
:1010D0008093E003FF91EF919F918F912F910F905B
:1010E0000BBE0F900FBE0F901F9018958081F2CF0E
:1010F0001F920F920FB60F9211242F933F938F934D
:101100009F93AF93BF938091BF039091C003A09131
:10111000C103B091C2033091BE0323E0230F2D37EA
:1011200058F50196A11DB11D2093BE038093BF0306
:101130009093C003A093C103B093C2038091C303F3
:101140009091C403A091C503B091C6030196A11D5F
:10115000B11D8093C3039093C403A093C503B093C0
:10116000C603BF91AF919F918F913F912F910F90A7
:101170000FBE0F901F90189526E8230F0296A11D11
:10118000B11DD2CF1092CA031092C90388EE93E02A
:10119000A0E0B0E08093CB039093CC03A093CD0369
:1011A000B093CE0385E292E09093C8038093C70387
:1011B00085EC90E09093D4038093D30384EC90E08B
:1011C0009093D6038093D50380EC90E09093D8035E
:1011D0008093D70381EC90E09093DA038093D90356
:1011E00082EC90E09093DC038093DB0386EC90E04C
:1011F0009093DE038093DD031092E0031092E103ED
:101200001092E2031092E3031092660410926A04B3
:101210001092690410926B0487E392E09093650446
:1012200080936404E0E8F4E0108214821382158253
:10123000369684E0EC3BF807B9F78DE092E09093A6
:10124000C7048093C60489E092E09093C904809318
:10125000C80484E08093CA048093CB0481E192E0C7
:101260009093C5048093C4048AE090E09093CD04E9
:101270008093CC0484EF91E09093CF048093CE04CC
:101280001092D2041092D1041092C0041092C104A2
:101290001092C2041092C3041092D004089578945E
:1012A00084B5826084BD84B5816084BD85B582606B
:1012B00085BD85B5816085BD80916E00816080931C
:1012C0006E00109281008091810082608093810085
:1012D0008091810081608093810080918000816095
:1012E000809380008091B10084608093B1008091F0
:1012F000B00081608093B000809191008260809303
:101300009100809191008160809391008091900084
:101310008160809390008091A10082608093A10001
:101320008091A10081608093A1008091A0008160E4
:101330008093A0008091210182608093210180919F
:10134000210181608093210180912001816080933F
:10135000200180917A00846080937A0080917A00E5
:10136000826080937A0080917A00816080937A0015
:1013700080917A00806880937A001092C100E09199
:10138000D703F091D80382E08083E091D303F091FA
:10139000D4031082E091D503F091D6038FEC8083C3
:1013A0001092DF03E091DB03F091DC0386E08083A1
:1013B000E091D903F091DA03808180618083E0912C
:1013C000D903F091DA03808188608083E091D903AA
:1013D000F091DA03808180688083E091D903F091F5
:1013E000DA0380818F7D808360E08BE00E948A0336
:1013F00060E08AE00E948A0361E084E00E948A0340
:1014000061E083E00E948A0361E082E00E948A0337
:101410000E94840764E670E080E090E00E94EF03A1
:101420000E949402F5CFEE0FFF1F881F8BBF07901D
:10143000F691E02D199485FD0C942F0A806291118C
:101440000C942F0A81568A51D8F70895FB01DC01CC
:101450008D91019080190110D9F3990B0895992766
:0814600088270895F894FFCFDE
:101468004143303443313234000E0F10111213143B
:10147800153738394134353642313233432A30232F
:10148800440000000027029101BE017402EF01CD63
:1014980001E10100000000C603860355030D0A00A0
:1014A8004D4F444F20534547555249444144004904
:1014B8006E6772657365206C61206E756576612054
:1014C800636C6176653A000A204C6120636C617632
:1014D8006520646562652074656E657220362075C6
:1014E800203820636172616374657265732E2049C8
:1014F8006E74656E7465206465206E7565766F2EF2
:10150800000A20506174726F6E20696E636F727288
:101518006563746F207061726120636C6176652009
:101528006465203620636172616374657265732E29
:10153800000A20506174726F6E20696E636F727258
:101548006563746F207061726120636C61766520D9
:101558006465203820636172616374657265732EF7
:10156800000A204E7565766120636C617665206996
:101578006E6772657361646120636F72726563740C
:10158800616D656E74652E002043616D62696F2020
:10159800646520636C61766520636F6D706C65743B
:1015A80061646F2E004D4F444F2043414C43554CCE
:1015B80041444F52410020496E677265736520703F
:1015C800617373776F72640020436F72726563741E
:1015D800610020496E636F727265637461004465CF
:1015E8006D61736961646F7320696E74656E746F81
:1015F8007320696E636F72726563746F732E204215
:0E1608006C6F717565616E646F2E2E2E000082
:00000001FF
