:100000000C943B010C946C010C946C010C946C01ED
:100010000C946C010C946C010C946C010C946C01AC
:100020000C946C010C946C010C946C010C946C019C
:100030000C946C010C946C010C946C010C946C018C
:100040000C946C010C946C010C946C010C946C017C
:100050000C946C010C946C010C946C010C94C80809
:100060000C946C010C9492080C9468080C946C012C
:100070000C946C010C946C010C946C010C946C014C
:100080000C946C010C946C010C946C010C946C013C
:100090000C946C010C946C010C946C010C946C012C
:1000A0000C946C010C946C010C946C010C946C011C
:1000B0000C946C010C946C010C946C010C946C010C
:1000C0000C946C010C946C010C946C010C946C01FC
:1000D0000C946C010C946C010C946C010C946C01EC
:1000E0000C946C010C94CD010C9412090C9408032F
:1000F0000C9427020C941E030C94FE020C94E9024B
:100100000C94ED020C94C6030C94F5020C9474024A
:100110000C9423030C94BE010C94F8020C941A0363
:100120000C9486030C9428030C940C030C94020387
:100130000C9491010C94F1020C9416030C9410038E
:100140000C94EF010C9455030C9424030C94E302DB
:100150000C94E10100002100240027002A002D005A
:100160003000330001010000040107010A01000012
:100170002200250028002B002E003100340002014F
:100180000000050108010B010000200023002600EB
:1001900029002C002F00320000010000030106019D
:1001A00009010505050507050808080802020202FD
:1001B0000A0A080804040404010101010101010103
:1001C0000303030303030303040707070C0C0C0CCE
:1001D0000C0C0C0C020202020606060606060606B7
:1001E0000B0B0B0B0B0B0B0B010210202008081044
:1001F0002040102040800201020108040201010297
:10020000040810204080804020100804020180046F
:1002100002018040201008040201080402010102CA
:1002200004081020408001020408102040800000D3
:100230000A0B02090C0D0E08070304010000000060
:1002400000000000000000000000000000000000AE
:10025000000000000000000000001211100000006B
:10026000000000000000000000000000000000008E
:1002700000000000120911241FBECFEFD1E2DEBF43
:10028000CDBF00E00CBF14E0A0E0B2E0E6E2F5E193
:1002900000E00BBF02C007900D92A237B107D9F75B
:1002A00025E0A2E7B4E001C01D92A739B207E1F74B
:1002B00011E0CBE3D1E000E006C021970109802FD7
:1002C000FE010E94630ACA33D10780E00807A9F73C
:1002D0000E949F090C94910A0C94000096E0899F5B
:1002E000D0011124A85DBA4F90967C936E935F97CE
:1002F00091E091969C939197E0919505F0919605E8
:1003000090919405992339F0309751F0811108C0EC
:10031000809144051994309719F05C968C91FACF2E
:100320000895AF92BF92CF92DF92EF92FF920F9318
:100330001F93CF93DF936C017B018B01040F151F7B
:10034000EB015E01AE18BF08C017D10759F06991E3
:10035000D601ED91FC910190F081E02DC601199537
:10036000892B79F7C501DF91CF911F910F91FF90F4
:10037000EF90DF90CF90BF90AF900895FC01538D28
:10038000448D252F30E0842F90E0821B930B54176F
:1003900010F0CF96089501970895FC01918D828DFC
:1003A000981761F0A28DAE0FBF2FB11D5D968C9195
:1003B000928D9F5F9F73928F90E008958FEF9FEFD4
:1003C0000895FC01918D828D981731F0828DE80F90
:1003D000F11D858D90E008958FEF9FEF0895FC014A
:1003E000918D228D892F90E0805C9F4F821B910917
:1003F0008F73992708958BE894E00E94EF0121E024
:10040000892B09F420E0822F0895FC01A48DA80F08
:10041000B92FB11DA35ABF4F2C91848D90E0019646
:100420008F739927848FA689B7892C93A089B18966
:100430008C91837080648C93938D848D981306C007
:100440000288F389E02D80818F7D80830895EF926B
:10045000FF920F931F93CF93DF93EC0181E0888F7E
:100460009B8D8C8D98131AC0E889F989808185FF4E
:1004700015C09FB7F894EE89FF896083E889F989F0
:1004800080818370806480839FBF81E090E0DF91F2
:10049000CF911F910F91FF90EF900895F62E0B8D45
:1004A00010E00F5F1F4F0F731127E02E8C8D8E1100
:1004B0000CC00FB607FCFACFE889F989808185FF67
:1004C000F5CFCE010E940502F1CFEB8DEC0FFD2F91
:1004D000F11DE35AFF4FF0829FB7F8940B8FEA8922
:1004E000FB8980818062CFCFCF93DF93EC01888D31
:1004F0008823B9F0AA89BB89E889F9898C9185FD9F
:1005000003C0808186FD0DC00FB607FCF7CF8C912C
:1005100085FFF2CF808185FFEDCFCE010E940502DD
:10052000E9CFDF91CF91089580E090E0892B29F009
:100530000E94FB0181110E94000080E090E0892B65
:1005400049F080E090E0892B29F00E9400008111A1
:100550000E94000080E090E0892B49F080E090E06C
:10056000892B29F00E94000081110E94000080E088
:1005700090E0892B49F080E090E0892B29F00E94DF
:10058000000081110C94000008958150823108F020
:100590005AC0E82FF0E08827EF52FD4F8F4F0C94A0
:1005A000630AF102F502E302E902ED022303F80215
:1005B000FE02020308030C03100316031A032303AD
:1005C0001E0324032803809180008F77809380008E
:1005D0000895809180008F7DF9CF80918000877F82
:1005E000F5CF84B58F7784BD089584B58F7DFBCF1B
:1005F0008091B0008F778093B00008958091B00013
:100600008F7DF9CF809190008F778093900008952F
:10061000809190008F7DF9CF80919000877FF5CFFA
:100620008091A0008F778093A00008958091A00012
:100630008F7DF9CF8091A000877FF5CF8091200139
:100640008F77809320010895809120018F7DF9CFCD
:1006500080912001877FF5CFCF93DF93282F30E063
:10066000F901E25DFD4F8491F901E851FE4FD4910B
:10067000F901EE55FE4FC491CC23A1F081110E94E7
:10068000C502EC2FF0E0EE0FFF1FE857FE4FA591DB
:10069000B491EC91ED2381E090E009F480E0DF91EA
:1006A000CF91089580E090E0FACF862F0C942C0330
:1006B0001F93CF93DF93282F30E0F901E25DFD4FC8
:1006C0008491F901E851FE4FD491F901EE55FE4FA6
:1006D000C491CC23A9F0162F81110E94C502EC2FE2
:1006E000F0E0EE0FFF1FE259FE4FA591B4918FB7D6
:1006F000F894EC91111108C0D095DE23DC938FBFE4
:10070000DF91CF911F910895DE2BF8CF862F642FB4
:100710000C945803CF93DF9390E0FC01E851FE4F17
:1007200024918E559E4FFC0184918823C9F090E05E
:10073000880F991FFC01EC5AFE4FA591B491FC0162
:10074000E259FE4FC591D49161110DC09FB7F89445
:100750008C91209582238C938881282328839FBFA6
:10076000DF91CF910895623051F49FB7F8943C9196
:10077000822F809583238C93E8812E2BEFCF8FB728
:10078000F894EC912E2B2C938FBFEACF862F642FF9
:100790000C948A033FB7F894809187049091880461
:1007A000A0918904B0918A0426B5A89B05C02F3F6B
:1007B00019F00196A11DB11D3FBFBA2FA92F982F87
:1007C0008827BC01CD01620F711D811D911D42E082
:1007D000660F771F881F991F4A95D1F708958F924A
:1007E0009F92AF92BF92CF92DF92EF92FF924B0116
:1007F0005C010E94CA036B017C010E94CA036C1950
:100800007D098E099F09683E734081059105A8F313
:1008100021E0821A9108A108B10888EEC80E83E091
:10082000D81EE11CF11C81149104A104B10429F724
:10083000FF90EF90DF90CF90BF90AF909F908F9000
:1008400008952FB7F8946091830470918404809187
:100850008504909186042FBF08950F931F93CF9323
:10086000DF93C82FD62F86E0C89FF0011124E85DE2
:10087000FA4F11A2878D90A181309105F1F058F0C7
:1008800082309105F1F1039709F440C0DF91CF91D7
:100890001F910F9108956623C9F361E070E08C2FDA
:1008A0000E946E010E94210460938005709381056F
:1008B0008093820590938305E9CF0E9421040091E3
:1008C0008005109181052091820530918305AB014F
:1008D000BC01401B510B620B730B809192059091F0
:1008E0009305B0E0A0E084179507A607B70748F482
:1008F00062E070E08C2FDF91CF911F910F910C94EB
:100900006E0163E070E0D111C1CFF4CF70E060E020
:10091000F1CF6F927F928F929F92AF92BF92CF92C0
:10092000DF92EF92FF920F931F93CF93DF9381E0BB
:10093000809394050E9421040091840510918505FF
:100940002091860530918705AB01BC01401B510BFE
:10095000620B730B8091900590919105B0E0A0E03F
:1009600084179507A607B70708F014C1C0E0809167
:100970008E05C81760F4E0918A05F0918B05EC0FA5
:10098000F11D62E080810E948A03CF5FF0CF712C5D
:10099000812C912C5401839480918F05781608F056
:1009A0005FC0072D10E0E0918C05F0918D05E00F00
:1009B000F11F61E080810E948A03E0918C05F09133
:1009C0008D05E00FF11F60E080810E945803D50182
:1009D000C401072C04C0880F991FAA1FBB1F0A94CB
:1009E000D2F76C017C01E094F094612C80918E052B
:1009F0006816F8F4C62DD0E0E0918A05F0918B05D9
:100A0000EC0FFD1F80810E942C032496CC0FDD1F6C
:100A1000C85DDA4F892B41F4888199818C299D2901
:100A2000998388836394E2CF888199818E219F2165
:100A3000F7CFE0918C05F0918D05E00FF11F61E09B
:100A400080810E94580380918C0590918D05080F3C
:100A5000191F60E0F80180810E948A0373949CCF83
:100A6000C8E2D5E0FE018FEF9FEF278D30A1232B49
:100A700021F4148E968F858F11A2369625E0E436E8
:100A8000F20799F7F12C96E0D92E80918E05F81691
:100A900008F050C0E12C0F2D10E0000F111F005D79
:100AA0001A4F20918F05E21608F042C0F8016081CC
:100AB00071810E2C02C0769567950A94E2F7F29E3A
:100AC000900111242E0D311DE8E2F5E080E0458D06
:100AD000568D2417350709F461C08F5F36968A302A
:100AE000B1F760FF23C0E8E2F5E090E080E0448DDC
:100AF000411117C0E0918805F0918905E20FF31FBD
:100B00004081D89EF001D99EF00D1124E85DFA4F86
:100B1000448F368F258F10A2178E61E00E942D041E
:100B200005C0019636968A30910509F7E394B9CF4E
:100B3000F394ABCF10E089A18111182F2696F5E030
:100B4000C436DF07C1F70E942104609384057093C7
:100B5000850580938605909387051123D9F08091B0
:100B600049058823B9F08091470590914805019780
:100B700089F480914405DF91CF911F910F91FF90EF
:100B8000EF90DF90CF90BF90AF909F908F907F902D
:100B90006F9008951092940580E0EDCF6170BECF04
:100BA000CF93DF93EC0161E0181619060CF060E0BA
:100BB00084E00E94580361E0C230D1050CF460E08B
:100BC00083E00E94580361E0239709F060E082E02F
:100BD000DF91CF910C945803FC0101900020E9F7BC
:100BE0003197AF01481B590BBC018BE894E00C9482
:100BF0009101CF93DF930E94EC05EC018DE392E02D
:100C00000E94EC058C0F9D1FDF91CF9108950F93EB
:100C10001F93CF93DF9300D000D000D0CDB7DEB7C5
:100C200080E492E00E94F90582E492E00E94F905D6
:100C300081E592E00E94F9058BE00E942C03019768
:100C400039F462E370E080E090E00E94EF03F4CFBB
:100C50008AE00E942C030197A1F30E948904882353
:100C600009F43AC18A3209F032C180E492E00E946C
:100C7000F90580E692E00E94F9058DE792E00E9476
:100C8000F9051092810410E000E00E948904882395
:100C9000E1F3833209F007C10630110589F008300D
:100CA000110509F461C080E492E00E94F90585E92C
:100CB00092E00E94F90580E492E00E94F905B0CF2D
:100CC0000981002E000C110BC801C0970A97F0F49F
:100CD0008A81082E000C990B0E946E0A892BB1F0B4
:100CE0008B81082E000C990BC0970A9778F48C81A1
:100CF000082E000C990B0E946E0A892B39F08D8109
:100D0000082E000C990BC0970A9718F1C8010E9491
:100D10006E0A892B31F18A81082E000C990BC0973D
:100D20000A97F8F48B81082E000C990B0E946E0A2A
:100D3000892BB9F08C81082E000C990BC0970A976B
:100D400080F48D81082E000C990B0E946E0A892B6D
:100D500041F08E81082E000C990BC0970A9708F479
:100D60007DC08EEC92E0A5CF0981002E000C110B06
:100D7000C8010E946E0A892BA1F18A81082E000CFD
:100D8000990BC0970A9768F58B81082E000C990B78
:100D90000E946E0A892B29F18C81082E000C990B78
:100DA0000E946E0A892BE9F08D81082E000C990BA8
:100DB000C0970A97B0F48E81082E000C990BC0974B
:100DC0000A9778F48F81082E000C990B0E946E0A06
:100DD000892B39F08885082E000C990BC0970A974B
:100DE000E8F1005311090A301105A8F58A81082E8F
:100DF000000C990B0E946E0A892B69F18B81082ED9
:100E0000000C990BC0970A9730F58C81082E000CC6
:100E1000990BC0970A97F8F48D81082E000C990B56
:100E20000E946E0A892BB9F08E81082E000C990B56
:100E30000E946E0A892B79F08F81082E000C990B85
:100E4000C0970A9740F48885082E000C990B0E94E1
:100E50006E0A892B19F48DEF92E02BCF48E050E019
:100E6000BE016F5F7F4F80E092E00E947F0A109288
:100E700008028CE293E00E94F9050E948904833203
:100E800039F062E370E080E090E00E94EF03F5CF7C
:100E900082E593E00E94F90580E492E00E94F90562
:100EA0000E9407063EC090918104E1E0F0E0EC0F63
:100EB000FD1FE90FF11D80839F5F90938104682FD0
:100EC0008BE894E00E9427020F5F1F4FDECE682F51
:100ED0008BE894E00E9427028AE00E942C0301978D
:100EE000B1F580E793E00E94F90580E492E00E946A
:100EF000F9058BE00E942C03019739F462E370E05E
:100F000080E090E00E94EF03F4CF8AE00E942C037F
:100F10000197A1F38BE00E942C03019791F40E94AA
:100F2000B9076CE271E080E090E029960FB6F89482
:100F3000DEBF0FBECDBFDF91CF911F910F910C94FB
:100F4000EF038AE00E942C03019721F7A9CF8BE0E1
:100F50000E942C03019709F080CE29960FB6F894D1
:100F6000DEBF0FBECDBFDF91CF911F910F910C94CB
:100F7000B907CF92DF92EF92FF92CF93DF9380E495
:100F800092E00E94F90582E893E00E94F9050E9430
:100F90008904833209F08AC0E0918104F0E0E858C6
:100FA000FB4F108260E072E088E794E00E94760ACE
:100FB000892B19F583E993E00E94F90580E492E01A
:100FC0000E94F9058AEA93E00E94F90587ED93E013
:100FD0000E94F905109277041092760490E080E068
:100FE0000E94D0050E94070610928104DF91CF91E4
:100FF000FF90EF90DF90CF90089580E492E00E9400
:10100000F9058CEE93E00E94F90580E492E00E94DD
:10101000F905C0917604D09177042196D093770496
:10102000C0937604CE010E94D0052397ECF28CE1A8
:1010300094E00E94F90580E494E00E94F9050E9482
:1010400021046B017C01C0927204D0927304E0927F
:101050007404F09275040E9421046C197D098E09B4
:101060009F0968397A438105910538F468EE73E089
:1010700080E090E00E94EF03EECF10927704109290
:10108000760460E084E00E94580360E083E00E9400
:10109000580360E082E00E9458031092720410929C
:1010A000730410927404109275049ECF882309F47F
:1010B0006ECF90918104E92FF0E0E858FB4F8083D8
:1010C0009F5F909381048FE694E00E94EC055FCFD0
:1010D0001F920F920FB60F9211240BB60F922F93FF
:1010E0003F934F935F936F937F938F939F93AF93B0
:1010F000BF93EF93FF938BE894E00E940502FF916A
:10110000EF91BF91AF919F918F917F916F915F917F
:101110004F913F912F910F900BBE0F900FBE0F90EC
:101120001F9018951F920F920FB60F9211240BB6B5
:101130000F922F938F939F93EF93FF93E0919B04D4
:10114000F0919C048081E091A104F091A20482FDC1
:101150001DC090818091A4048F5F8F732091A5049E
:10116000821741F0E091A404F0E0E557FB4F958F22
:101170008093A404FF91EF919F918F912F910F90F5
:101180000BBE0F900FBE0F901F9018958081F2CF6D
:101190001F920F920FB60F9211242F933F938F93AC
:1011A0009F93AF93BF938091830490918404A09107
:1011B0008504B09186043091820423E0230F2D37FB
:1011C00058F50196A11DB11D2093820480938304DC
:1011D00090938404A0938504B0938604809187043F
:1011E00090918804A0918904B0918A040196A11D70
:1011F000B11D8093870490938804A0938904B093D1
:101200008A04BF91AF919F918F913F912F910F9041
:101210000FBE0F901F90189526E8230F0296A11D70
:10122000B11DD2CF10928E0410928D0488EE93E0FF
:10123000A0E0B0E080938F0490939004A093910479
:10124000B093920485E292E090938C0480938B0497
:1012500085EC90E0909398048093970484EC90E060
:1012600090939A048093990480EC90E090939C046E
:1012700080939B0481EC90E090939E0480939D0466
:1012800082EC90E09093A00480939F0486EC90E021
:101290009093A2048093A1041092A4041092A50438
:1012A0001092A6041092A70410922A0510922E05FF
:1012B00010922D0510922F0587E392E09093290557
:1012C00080932805E4E4F5E01082148213821582ED
:1012D000369685E0E038F807B9F78DE092E0909314
:1012E0008B0580938A0589E092E090938D05809329
:1012F0008C0584E080938E0580938F0581E192E0D8
:1013000090938905809388058AE090E090939105F9
:101310008093900584EF91E09093930580939205DC
:1013200010929605109295051092840510928505ED
:10133000109286051092870510929405089578946E
:1013400084B5826084BD84B5816084BD85B58260CA
:1013500085BD85B5816085BD80916E00816080937B
:101360006E001092810080918100826080938100E4
:1013700080918100816080938100809180008160F4
:10138000809380008091B10084608093B10080914F
:10139000B00081608093B000809191008260809362
:1013A00091008091910081608093910080919000E4
:1013B0008160809390008091A10082608093A10061
:1013C0008091A10081608093A1008091A000816044
:1013D0008093A000809121018260809321018091FF
:1013E000210181608093210180912001816080939F
:1013F000200180917A00846080937A0080917A0045
:10140000826080937A0080917A00816080937A0074
:1014100080917A00806880937A001092C100E091F8
:101420009B04F0919C0482E08083E0919704F0910A
:1014300098041082E0919904F0919A048FEC8083D3
:101440001092A304E0919F04F091A00486E08083B1
:10145000E0919D04F0919E04808180618083E09101
:101460009D04F0919E04808188608083E0919D04BA
:10147000F0919E04808180688083E0919D04F091CA
:101480009E0480818F7D808360E08BE00E948A03D0
:1014900060E08AE00E948A0361E084E00E948A039F
:1014A00061E083E00E948A0361E082E00E948A0397
:1014B0000E94B90764E670E080E090E00E94EF03CC
:1014C0000E949402F5CFEE0FFF1F881F8BBF07907D
:1014D000F691E02D199485FD0C948E0A806291118D
:1014E0000C948E0A81568A51D8F70895FB01DC01CD
:1014F0008D91019080190110D9F3990B0895FB018A
:10150000DC014150504048F001900D920020C9F795
:1015100001C01D9241505040E0F708959927882757
:061520000895F894FFCFCE
:101526004143303443313234000E0F10111213147C
:10153600153738394134353642313233432A302370
:10154600440000000027029101BE017402EF01CDA4
:1015560001E10100000000C603860355030D0A00E1
:1015660020004D4F444F205345475552494441446E
:10157600003D3D3D2041524D41444F203D3D3D0003
:101586003D3D3D204553504552414E444F20434F2B
:101596004E54524153454E4941203D3D00496E67E8
:1015A60072657365206C61206E7565766120636C6B
:1015B6006176653A00204C6120636C617665206433
:1015C6006562652074656E65722036207520382048
:1015D600636172616374657265732E20496E74650A
:1015E6006E7465206465206E7565766F2E002050DA
:1015F6006174726F6E20696E636F72726563746F69
:10160600207061726120636C6176652064652036A6
:1016160020636172616374657265732E0020506188
:1016260074726F6E20696E636F72726563746F2079
:101636007061726120636C61766520646520382074
:10164600636172616374657265732E00204E756501
:10165600766120636C61766520696E677265736179
:10166600646120636F7272656374616D656E746523
:101676002E004E7565766120636F6E7472617365B8
:101686006E696120616C6D6163656E6164612E00D7
:10169600204D4F444F2043414C43554C41444F52FB
:1016A6004100496E67726573652070617373776F69
:1016B6007264002076616C6964616E646F20636F8A
:1016C6006E74726173656E6961004C6120636F6E42
:1016D60074726173656E6961207365206861206943
:1016E6006E6772657361646F20636F72726563748F
:1016F600616D656E7465003D3D3D20444553424C29
:101706004F51554541444F203D3D3D004C612063BE
:101716006F6E74726173656E6961206E6F2073659A
:1017260020686120696E6772657361646F20636FFC
:101736007272656374616D656E7465003D3D3D2032
:101746004D4158494D4F20444520494E54454E542D
:101756004F532046414C4C49444F5320203D3D00B9
:1017660044656D61736961646F7320696E74656E3B
:10177600746F7320696E636F72726563746F732E14
:1017860020426C6F717565616E646F2E2E2E002A75
:02179600000051
:00000001FF
